{
  "_format": "hh-sol-artifact-1",
  "contractName": "NFTMarketplace",
  "sourceName": "contracts/NFTMarketplace.sol",
  "address": "0xca70cE12804723d41E47fd2C60b0d97B051EF334",
  "abi": [
    {
      "inputs": [],
      "stateMutability": "nonpayable",
      "type": "constructor"
    },
    {
      "anonymous": false,
      "inputs": [
        {
          "indexed": true,
          "internalType": "address",
          "name": "owner",
          "type": "address"
        },
        {
          "indexed": true,
          "internalType": "address",
          "name": "approved",
          "type": "address"
        },
        {
          "indexed": true,
          "internalType": "uint256",
          "name": "tokenId",
          "type": "uint256"
        }
      ],
      "name": "Approval",
      "type": "event"
    },
    {
      "anonymous": false,
      "inputs": [
        {
          "indexed": true,
          "internalType": "address",
          "name": "owner",
          "type": "address"
        },
        {
          "indexed": true,
          "internalType": "address",
          "name": "operator",
          "type": "address"
        },
        {
          "indexed": false,
          "internalType": "bool",
          "name": "approved",
          "type": "bool"
        }
      ],
      "name": "ApprovalForAll",
      "type": "event"
    },
    {
      "anonymous": false,
      "inputs": [
        {
          "indexed": false,
          "internalType": "uint256",
          "name": "_fromTokenId",
          "type": "uint256"
        },
        {
          "indexed": false,
          "internalType": "uint256",
          "name": "_toTokenId",
          "type": "uint256"
        }
      ],
      "name": "BatchMetadataUpdate",
      "type": "event"
    },
    {
      "anonymous": false,
      "inputs": [
        {
          "indexed": false,
          "internalType": "uint256",
          "name": "_tokenId",
          "type": "uint256"
        }
      ],
      "name": "MetadataUpdate",
      "type": "event"
    },
    {
      "anonymous": false,
      "inputs": [
        {
          "indexed": true,
          "internalType": "address",
          "name": "from",
          "type": "address"
        },
        {
          "indexed": true,
          "internalType": "address",
          "name": "to",
          "type": "address"
        },
        {
          "indexed": true,
          "internalType": "uint256",
          "name": "tokenId",
          "type": "uint256"
        }
      ],
      "name": "Transfer",
      "type": "event"
    },
    {
      "inputs": [
        {
          "internalType": "address",
          "name": "to",
          "type": "address"
        },
        {
          "internalType": "uint256",
          "name": "tokenId",
          "type": "uint256"
        }
      ],
      "name": "approve",
      "outputs": [],
      "stateMutability": "nonpayable",
      "type": "function"
    },
    {
      "inputs": [
        {
          "internalType": "address",
          "name": "owner",
          "type": "address"
        }
      ],
      "name": "balanceOf",
      "outputs": [
        {
          "internalType": "uint256",
          "name": "",
          "type": "uint256"
        }
      ],
      "stateMutability": "view",
      "type": "function"
    },
    {
      "inputs": [
        {
          "internalType": "string",
          "name": "tokenURI",
          "type": "string"
        },
        {
          "internalType": "uint256",
          "name": "price",
          "type": "uint256"
        }
      ],
      "name": "createToken",
      "outputs": [
        {
          "internalType": "uint256",
          "name": "",
          "type": "uint256"
        }
      ],
      "stateMutability": "payable",
      "type": "function"
    },
    {
      "inputs": [
        {
          "internalType": "uint256",
          "name": "tokenId",
          "type": "uint256"
        }
      ],
      "name": "executeSale",
      "outputs": [],
      "stateMutability": "payable",
      "type": "function"
    },
    {
      "inputs": [],
      "name": "getAllNFTs",
      "outputs": [
        {
          "components": [
            {
              "internalType": "uint256",
              "name": "tokenId",
              "type": "uint256"
            },
            {
              "internalType": "address payable",
              "name": "owner",
              "type": "address"
            },
            {
              "internalType": "address payable",
              "name": "seller",
              "type": "address"
            },
            {
              "internalType": "uint256",
              "name": "price",
              "type": "uint256"
            },
            {
              "internalType": "bool",
              "name": "currentlyListed",
              "type": "bool"
            }
          ],
          "internalType": "struct NFTMarketplace.ListedToken[]",
          "name": "",
          "type": "tuple[]"
        }
      ],
      "stateMutability": "view",
      "type": "function"
    },
    {
      "inputs": [
        {
          "internalType": "uint256",
          "name": "tokenId",
          "type": "uint256"
        }
      ],
      "name": "getApproved",
      "outputs": [
        {
          "internalType": "address",
          "name": "",
          "type": "address"
        }
      ],
      "stateMutability": "view",
      "type": "function"
    },
    {
      "inputs": [],
      "name": "getCurrentTokenId",
      "outputs": [
        {
          "internalType": "uint256",
          "name": "",
          "type": "uint256"
        }
      ],
      "stateMutability": "view",
      "type": "function"
    },
    {
      "inputs": [],
      "name": "getLatestIdToListedToken",
      "outputs": [
        {
          "components": [
            {
              "internalType": "uint256",
              "name": "tokenId",
              "type": "uint256"
            },
            {
              "internalType": "address payable",
              "name": "owner",
              "type": "address"
            },
            {
              "internalType": "address payable",
              "name": "seller",
              "type": "address"
            },
            {
              "internalType": "uint256",
              "name": "price",
              "type": "uint256"
            },
            {
              "internalType": "bool",
              "name": "currentlyListed",
              "type": "bool"
            }
          ],
          "internalType": "struct NFTMarketplace.ListedToken",
          "name": "",
          "type": "tuple"
        }
      ],
      "stateMutability": "view",
      "type": "function"
    },
    {
      "inputs": [
        {
          "internalType": "uint256",
          "name": "tokenId",
          "type": "uint256"
        }
      ],
      "name": "getListedTokenById",
      "outputs": [
        {
          "components": [
            {
              "internalType": "uint256",
              "name": "tokenId",
              "type": "uint256"
            },
            {
              "internalType": "address payable",
              "name": "owner",
              "type": "address"
            },
            {
              "internalType": "address payable",
              "name": "seller",
              "type": "address"
            },
            {
              "internalType": "uint256",
              "name": "price",
              "type": "uint256"
            },
            {
              "internalType": "bool",
              "name": "currentlyListed",
              "type": "bool"
            }
          ],
          "internalType": "struct NFTMarketplace.ListedToken",
          "name": "",
          "type": "tuple"
        }
      ],
      "stateMutability": "view",
      "type": "function"
    },
    {
      "inputs": [],
      "name": "getListingPrice",
      "outputs": [
        {
          "internalType": "uint256",
          "name": "",
          "type": "uint256"
        }
      ],
      "stateMutability": "view",
      "type": "function"
    },
    {
      "inputs": [],
      "name": "getMyNFTs",
      "outputs": [
        {
          "components": [
            {
              "internalType": "uint256",
              "name": "tokenId",
              "type": "uint256"
            },
            {
              "internalType": "address payable",
              "name": "owner",
              "type": "address"
            },
            {
              "internalType": "address payable",
              "name": "seller",
              "type": "address"
            },
            {
              "internalType": "uint256",
              "name": "price",
              "type": "uint256"
            },
            {
              "internalType": "bool",
              "name": "currentlyListed",
              "type": "bool"
            }
          ],
          "internalType": "struct NFTMarketplace.ListedToken[]",
          "name": "",
          "type": "tuple[]"
        }
      ],
      "stateMutability": "view",
      "type": "function"
    },
    {
      "inputs": [
        {
          "internalType": "address",
          "name": "owner",
          "type": "address"
        },
        {
          "internalType": "address",
          "name": "operator",
          "type": "address"
        }
      ],
      "name": "isApprovedForAll",
      "outputs": [
        {
          "internalType": "bool",
          "name": "",
          "type": "bool"
        }
      ],
      "stateMutability": "view",
      "type": "function"
    },
    {
      "inputs": [],
      "name": "name",
      "outputs": [
        {
          "internalType": "string",
          "name": "",
          "type": "string"
        }
      ],
      "stateMutability": "view",
      "type": "function"
    },
    {
      "inputs": [
        {
          "internalType": "uint256",
          "name": "tokenId",
          "type": "uint256"
        }
      ],
      "name": "ownerOf",
      "outputs": [
        {
          "internalType": "address",
          "name": "",
          "type": "address"
        }
      ],
      "stateMutability": "view",
      "type": "function"
    },
    {
      "inputs": [
        {
          "internalType": "address",
          "name": "from",
          "type": "address"
        },
        {
          "internalType": "address",
          "name": "to",
          "type": "address"
        },
        {
          "internalType": "uint256",
          "name": "tokenId",
          "type": "uint256"
        }
      ],
      "name": "safeTransferFrom",
      "outputs": [],
      "stateMutability": "nonpayable",
      "type": "function"
    },
    {
      "inputs": [
        {
          "internalType": "address",
          "name": "from",
          "type": "address"
        },
        {
          "internalType": "address",
          "name": "to",
          "type": "address"
        },
        {
          "internalType": "uint256",
          "name": "tokenId",
          "type": "uint256"
        },
        {
          "internalType": "bytes",
          "name": "data",
          "type": "bytes"
        }
      ],
      "name": "safeTransferFrom",
      "outputs": [],
      "stateMutability": "nonpayable",
      "type": "function"
    },
    {
      "inputs": [
        {
          "internalType": "address",
          "name": "operator",
          "type": "address"
        },
        {
          "internalType": "bool",
          "name": "approved",
          "type": "bool"
        }
      ],
      "name": "setApprovalForAll",
      "outputs": [],
      "stateMutability": "nonpayable",
      "type": "function"
    },
    {
      "inputs": [
        {
          "internalType": "bytes4",
          "name": "interfaceId",
          "type": "bytes4"
        }
      ],
      "name": "supportsInterface",
      "outputs": [
        {
          "internalType": "bool",
          "name": "",
          "type": "bool"
        }
      ],
      "stateMutability": "view",
      "type": "function"
    },
    {
      "inputs": [],
      "name": "symbol",
      "outputs": [
        {
          "internalType": "string",
          "name": "",
          "type": "string"
        }
      ],
      "stateMutability": "view",
      "type": "function"
    },
    {
      "inputs": [
        {
          "internalType": "uint256",
          "name": "tokenId",
          "type": "uint256"
        }
      ],
      "name": "tokenURI",
      "outputs": [
        {
          "internalType": "string",
          "name": "",
          "type": "string"
        }
      ],
      "stateMutability": "view",
      "type": "function"
    },
    {
      "inputs": [
        {
          "internalType": "address",
          "name": "from",
          "type": "address"
        },
        {
          "internalType": "address",
          "name": "to",
          "type": "address"
        },
        {
          "internalType": "uint256",
          "name": "tokenId",
          "type": "uint256"
        }
      ],
      "name": "transferFrom",
      "outputs": [],
      "stateMutability": "nonpayable",
      "type": "function"
    },
    {
      "inputs": [
        {
          "internalType": "uint256",
          "name": "_listingPrice",
          "type": "uint256"
        }
      ],
      "name": "updateListedPrice",
      "outputs": [],
      "stateMutability": "nonpayable",
      "type": "function"
    }
  ],
  "bytecode": "0x6080604052662386f26fc10000600a553480156200001c57600080fd5b506040518060400160405280600f81526020016e4e4654204d61726b6574706c61636560881b8152506040518060400160405280600581526020016404e46544d560dc1b815250816000908162000074919062000145565b50600162000083828262000145565b5050600780546001600160a01b031916331790555062000211565b634e487b7160e01b600052604160045260246000fd5b600181811c90821680620000c957607f821691505b602082108103620000ea57634e487b7160e01b600052602260045260246000fd5b50919050565b601f82111562000140576000816000526020600020601f850160051c810160208610156200011b5750805b601f850160051c820191505b818110156200013c5782815560010162000127565b5050505b505050565b81516001600160401b038111156200016157620001616200009e565b6200017981620001728454620000b4565b84620000f0565b602080601f831160018114620001b15760008415620001985750858301515b600019600386901b1c1916600185901b1785556200013c565b600085815260208120601f198616915b82811015620001e257888601518255948401946001909101908401620001c1565b5085821015620002015787850151600019600388901b60f8161c191681555b5050505050600190811b01905550565b61208a80620002216000396000f3fe6080604052600436106101355760003560e01c806372b3b620116100ab578063b88d4fde1161006f578063b88d4fde1461033c578063c87b56dd1461035c578063d1a88ae51461037c578063e0391b091461039e578063e985e9c5146103b3578063eda187dd146103fc57600080fd5b806372b3b620146102c157806395d89b41146102d45780639b1225c4146102e95780639e52ce14146102fc578063a22cb4651461031c57600080fd5b806323b872dd116100fd57806323b872dd1461020a57806342842e0e1461022a578063561892361461024a578063629cb2e41461025f5780636352211e1461028157806370a08231146102a157600080fd5b806301ffc9a71461013a57806306fdde031461016f578063081812fc14610191578063095ea7b3146101c957806312e85585146101eb575b600080fd5b34801561014657600080fd5b5061015a6101553660046119a3565b61041c565b60405190151581526020015b60405180910390f35b34801561017b57600080fd5b50610184610447565b6040516101669190611a10565b34801561019d57600080fd5b506101b16101ac366004611a23565b6104d9565b6040516001600160a01b039091168152602001610166565b3480156101d557600080fd5b506101e96101e4366004611a58565b610500565b005b3480156101f757600080fd5b50600a545b604051908152602001610166565b34801561021657600080fd5b506101e9610225366004611a82565b61061a565b34801561023657600080fd5b506101e9610245366004611a82565b61064b565b34801561025657600080fd5b506008546101fc565b34801561026b57600080fd5b50610274610666565b6040516101669190611afe565b34801561028d57600080fd5b506101b161029c366004611a23565b610861565b3480156102ad57600080fd5b506101fc6102bc366004611b4c565b6108c1565b6101fc6102cf366004611bf3565b610947565b3480156102e057600080fd5b50610184610a5f565b6101e96102f7366004611a23565b610a6e565b34801561030857600080fd5b506101e9610317366004611a23565b610bbb565b34801561032857600080fd5b506101e9610337366004611c4c565b610c1a565b34801561034857600080fd5b506101e9610357366004611c88565b610c29565b34801561036857600080fd5b50610184610377366004611a23565b610c5b565b34801561038857600080fd5b50610391610d63565b6040516101669190611d04565b3480156103aa57600080fd5b50610274610dd0565b3480156103bf57600080fd5b5061015a6103ce366004611d12565b6001600160a01b03918216600090815260056020908152604080832093909416825291909152205460ff1690565b34801561040857600080fd5b50610391610417366004611a23565b610ed2565b60006001600160e01b03198216632483248360e11b1480610441575061044182610f3c565b92915050565b60606000805461045690611d45565b80601f016020809104026020016040519081016040528092919081815260200182805461048290611d45565b80156104cf5780601f106104a4576101008083540402835291602001916104cf565b820191906000526020600020905b8154815290600101906020018083116104b257829003601f168201915b5050505050905090565b60006104e482610f8c565b506000908152600460205260409020546001600160a01b031690565b600061050b82610861565b9050806001600160a01b0316836001600160a01b03160361057d5760405162461bcd60e51b815260206004820152602160248201527f4552433732313a20617070726f76616c20746f2063757272656e74206f776e656044820152603960f91b60648201526084015b60405180910390fd5b336001600160a01b0382161480610599575061059981336103ce565b61060b5760405162461bcd60e51b815260206004820152603d60248201527f4552433732313a20617070726f76652063616c6c6572206973206e6f7420746f60448201527f6b656e206f776e6572206f7220617070726f76656420666f7220616c6c0000006064820152608401610574565b6106158383610fee565b505050565b610624338261105c565b6106405760405162461bcd60e51b815260040161057490611d7f565b6106158383836110da565b61061583838360405180602001604052806000815250610c29565b6008546060906000805b828110156106f65733600b6000610688846001611de2565b81526020810191909152604001600020600101546001600160a01b031614806106db575033600b60006106bc846001611de2565b81526020810191909152604001600020600201546001600160a01b0316145b156106ee57816106ea81611df5565b9250505b600101610670565b60008267ffffffffffffffff81111561071157610711611b67565b60405190808252806020026020018201604052801561074a57816020015b61073761195f565b81526020019060019003908161072f5790505b509050600091505b838210156108595733600b600061076a856001611de2565b81526020810191909152604001600020600101546001600160a01b031614806107bd575033600b600061079e856001611de2565b81526020810191909152604001600020600201546001600160a01b0316145b1561084e57600b60006107d1846001611de2565b81526020808201929092526040908101600020815160a0810183528154815260018201546001600160a01b0390811694820194909452600282015490931691830191909152600381015460608301526004015460ff1615156080820152815182908490811061084257610842611e0e565b60200260200101819052505b600190910190610752565b949350505050565b6000818152600260205260408120546001600160a01b0316806104415760405162461bcd60e51b8152602060048201526018602482015277115490cdcc8c4e881a5b9d985b1a59081d1bdad95b88125160421b6044820152606401610574565b60006001600160a01b03821661092b5760405162461bcd60e51b815260206004820152602960248201527f4552433732313a2061646472657373207a65726f206973206e6f7420612076616044820152683634b21037bbb732b960b91b6064820152608401610574565b506001600160a01b031660009081526003602052604090205490565b6000600a5434146109c05760405162461bcd60e51b815260206004820152603a60248201527f4e6f7420656e6f7567682065746865722120507269636520666f72206c69737460448201527f696e6720796f757220746f6b656e20697320302e3031204554480000000000006064820152608401610574565b60008211610a1c5760405162461bcd60e51b815260206004820152602360248201527f4d616b65207375726520746865207072696365206973206e6f74206e6567617460448201526269766560e81b6064820152608401610574565b60088054906000610a2c83611df5565b9190505550610a3d3360085461123e565b610a4960085484611258565b610a5560085483611323565b5060085492915050565b60606001805461045690611d45565b6000818152600b6020526040902060030154348114610aeb5760405162461bcd60e51b815260206004820152603360248201527f506c6561736520706179207468652061736b696e67207072696365206f66207460448201527234329027232a103a3790383ab931b430b9b29760691b6064820152608401610574565b6000828152600b60205260409020600281018054336001600160a01b0319821681179092556004909201805460ff191660011790556001600160a01b0390911690610b38903090856110da565b610b423084610500565b600754600a546040516001600160a01b039092169181156108fc0291906000818181858888f19350505050158015610b7e573d6000803e3d6000fd5b506040516001600160a01b0382169083156108fc029084906000818181858888f19350505050158015610bb5573d6000803e3d6000fd5b50505050565b6007546001600160a01b03163314610c155760405162461bcd60e51b815260206004820152601f60248201527f4f6e6c79206f776e65722063616e2075706461746520746865205072696365006044820152606401610574565b600a55565b610c253383836113c0565b5050565b610c33338361105c565b610c4f5760405162461bcd60e51b815260040161057490611d7f565b610bb58484848461148e565b6060610c6682610f8c565b60008281526006602052604081208054610c7f90611d45565b80601f0160208091040260200160405190810160405280929190818152602001828054610cab90611d45565b8015610cf85780601f10610ccd57610100808354040283529160200191610cf8565b820191906000526020600020905b815481529060010190602001808311610cdb57829003601f168201915b505050505090506000610d1660408051602081019091526000815290565b90508051600003610d28575092915050565b815115610d5a578082604051602001610d42929190611e24565b60405160208183030381529060405292505050919050565b610859846114c1565b610d6b61195f565b506008546000908152600b6020908152604091829020825160a0810184528154815260018201546001600160a01b03908116938201939093526002820154909216928201929092526003820154606082015260049091015460ff161515608082015290565b60085460609060008167ffffffffffffffff811115610df157610df1611b67565b604051908082528060200260200182016040528015610e2a57816020015b610e1761195f565b815260200190600190039081610e0f5790505b50905060005b82811015610ecb57600b6000610e47836001611de2565b81526020808201929092526040908101600020815160a0810183528154815260018201546001600160a01b0390811694820194909452600282015490931691830191909152600381015460608301526004015460ff16151560808201528251839083908110610eb857610eb8611e0e565b6020908102919091010152600101610e30565b5092915050565b610eda61195f565b506000908152600b6020908152604091829020825160a0810184528154815260018201546001600160a01b03908116938201939093526002820154909216928201929092526003820154606082015260049091015460ff161515608082015290565b60006001600160e01b031982166380ac58cd60e01b1480610f6d57506001600160e01b03198216635b5e139f60e01b145b8061044157506301ffc9a760e01b6001600160e01b0319831614610441565b6000818152600260205260409020546001600160a01b0316610feb5760405162461bcd60e51b8152602060048201526018602482015277115490cdcc8c4e881a5b9d985b1a59081d1bdad95b88125160421b6044820152606401610574565b50565b600081815260046020526040902080546001600160a01b0319166001600160a01b038416908117909155819061102382610861565b6001600160a01b03167f8c5be1e5ebec7d5bd14f71427d1e84f3dd0314c0f7b2291e5b200ac8c7c3b92560405160405180910390a45050565b60008061106883610861565b9050806001600160a01b0316846001600160a01b031614806110af57506001600160a01b0380821660009081526005602090815260408083209388168352929052205460ff165b806108595750836001600160a01b03166110c8846104d9565b6001600160a01b031614949350505050565b826001600160a01b03166110ed82610861565b6001600160a01b0316146111135760405162461bcd60e51b815260040161057490611e53565b6001600160a01b0382166111755760405162461bcd60e51b8152602060048201526024808201527f4552433732313a207472616e7366657220746f20746865207a65726f206164646044820152637265737360e01b6064820152608401610574565b826001600160a01b031661118882610861565b6001600160a01b0316146111ae5760405162461bcd60e51b815260040161057490611e53565b600081815260046020908152604080832080546001600160a01b03199081169091556001600160a01b0387811680865260038552838620805460001901905590871680865283862080546001019055868652600290945282852080549092168417909155905184937fddf252ad1be2c89b69c2b068fc378daa952ba7f163c4a11628f55a4df523b3ef91a4505050565b610c25828260405180602001604052806000815250611535565b6000828152600260205260409020546001600160a01b03166112d35760405162461bcd60e51b815260206004820152602e60248201527f45524337323155524953746f726167653a2055524920736574206f66206e6f6e60448201526d32bc34b9ba32b73a103a37b5b2b760911b6064820152608401610574565b60008281526006602052604090206112eb8282611ee8565b506040518281527ff8e1a15aba9398e019f0b49df1a4fde98ee17ae345cb5f6b5e2c27f5033e8ce79060200160405180910390a15050565b6040805160a081018252838152306020808301828152338486018181526060860188815260016080880181815260008c8152600b9097529890952096518755925193860180546001600160a01b039586166001600160a01b03199182161790915590516002870180549190951691161790925551600384015592516004909201805492151560ff1990931692909217909155610c259190846110da565b816001600160a01b0316836001600160a01b0316036114215760405162461bcd60e51b815260206004820152601960248201527f4552433732313a20617070726f766520746f2063616c6c6572000000000000006044820152606401610574565b6001600160a01b03838116600081815260056020908152604080832094871680845294825291829020805460ff191686151590811790915591519182527f17307eab39ab6107e8899845ad3d59bd9653f200f220920489ca2b5937696c31910160405180910390a3505050565b6114998484846110da565b6114a584848484611568565b610bb55760405162461bcd60e51b815260040161057490611fa8565b60606114cc82610f8c565b60006114e360408051602081019091526000815290565b90506000815111611503576040518060200160405280600081525061152e565b8061150d84611669565b60405160200161151e929190611e24565b6040516020818303038152906040525b9392505050565b61153f83836116fc565b61154c6000848484611568565b6106155760405162461bcd60e51b815260040161057490611fa8565b60006001600160a01b0384163b1561165e57604051630a85bd0160e11b81526001600160a01b0385169063150b7a02906115ac903390899088908890600401611ffa565b6020604051808303816000875af19250505080156115e7575060408051601f3d908101601f191682019092526115e491810190612037565b60015b611644573d808015611615576040519150601f19603f3d011682016040523d82523d6000602084013e61161a565b606091505b50805160000361163c5760405162461bcd60e51b815260040161057490611fa8565b805181602001fd5b6001600160e01b031916630a85bd0160e11b149050610859565b506001949350505050565b6060600061167683611887565b600101905060008167ffffffffffffffff81111561169657611696611b67565b6040519080825280601f01601f1916602001820160405280156116c0576020820181803683370190505b5090508181016020015b600019016f181899199a1a9b1b9c1cb0b131b232b360811b600a86061a8153600a85049450846116ca57509392505050565b6001600160a01b0382166117525760405162461bcd60e51b815260206004820181905260248201527f4552433732313a206d696e7420746f20746865207a65726f20616464726573736044820152606401610574565b6000818152600260205260409020546001600160a01b0316156117b75760405162461bcd60e51b815260206004820152601c60248201527f4552433732313a20746f6b656e20616c7265616479206d696e746564000000006044820152606401610574565b6000818152600260205260409020546001600160a01b03161561181c5760405162461bcd60e51b815260206004820152601c60248201527f4552433732313a20746f6b656e20616c7265616479206d696e746564000000006044820152606401610574565b6001600160a01b038216600081815260036020908152604080832080546001019055848352600290915280822080546001600160a01b0319168417905551839291907fddf252ad1be2c89b69c2b068fc378daa952ba7f163c4a11628f55a4df523b3ef908290a45050565b60008072184f03e93ff9f4daa797ed6e38ed64bf6a1f0160401b83106118c65772184f03e93ff9f4daa797ed6e38ed64bf6a1f0160401b830492506040015b6d04ee2d6d415b85acef810000000083106118f2576d04ee2d6d415b85acef8100000000830492506020015b662386f26fc10000831061191057662386f26fc10000830492506010015b6305f5e1008310611928576305f5e100830492506008015b612710831061193c57612710830492506004015b6064831061194e576064830492506002015b600a83106104415760010192915050565b6040805160a08101825260008082526020820181905291810182905260608101829052608081019190915290565b6001600160e01b031981168114610feb57600080fd5b6000602082840312156119b557600080fd5b813561152e8161198d565b60005b838110156119db5781810151838201526020016119c3565b50506000910152565b600081518084526119fc8160208601602086016119c0565b601f01601f19169290920160200192915050565b60208152600061152e60208301846119e4565b600060208284031215611a3557600080fd5b5035919050565b80356001600160a01b0381168114611a5357600080fd5b919050565b60008060408385031215611a6b57600080fd5b611a7483611a3c565b946020939093013593505050565b600080600060608486031215611a9757600080fd5b611aa084611a3c565b9250611aae60208501611a3c565b9150604084013590509250925092565b805182526020808201516001600160a01b039081169184019190915260408083015190911690830152606080820151908301526080908101511515910152565b6020808252825182820181905260009190848201906040850190845b81811015611b4057611b2d838551611abe565b9284019260a09290920191600101611b1a565b50909695505050505050565b600060208284031215611b5e57600080fd5b61152e82611a3c565b634e487b7160e01b600052604160045260246000fd5b600067ffffffffffffffff80841115611b9857611b98611b67565b604051601f8501601f19908116603f01168101908282118183101715611bc057611bc0611b67565b81604052809350858152868686011115611bd957600080fd5b858560208301376000602087830101525050509392505050565b60008060408385031215611c0657600080fd5b823567ffffffffffffffff811115611c1d57600080fd5b8301601f81018513611c2e57600080fd5b611c3d85823560208401611b7d565b95602094909401359450505050565b60008060408385031215611c5f57600080fd5b611c6883611a3c565b915060208301358015158114611c7d57600080fd5b809150509250929050565b60008060008060808587031215611c9e57600080fd5b611ca785611a3c565b9350611cb560208601611a3c565b925060408501359150606085013567ffffffffffffffff811115611cd857600080fd5b8501601f81018713611ce957600080fd5b611cf887823560208401611b7d565b91505092959194509250565b60a081016104418284611abe565b60008060408385031215611d2557600080fd5b611d2e83611a3c565b9150611d3c60208401611a3c565b90509250929050565b600181811c90821680611d5957607f821691505b602082108103611d7957634e487b7160e01b600052602260045260246000fd5b50919050565b6020808252602d908201527f4552433732313a2063616c6c6572206973206e6f7420746f6b656e206f776e6560408201526c1c881bdc88185c1c1c9bdd9959609a1b606082015260800190565b634e487b7160e01b600052601160045260246000fd5b8082018082111561044157610441611dcc565b600060018201611e0757611e07611dcc565b5060010190565b634e487b7160e01b600052603260045260246000fd5b60008351611e368184602088016119c0565b835190830190611e4a8183602088016119c0565b01949350505050565b60208082526025908201527f4552433732313a207472616e736665722066726f6d20696e636f72726563742060408201526437bbb732b960d91b606082015260800190565b601f821115610615576000816000526020600020601f850160051c81016020861015611ec15750805b601f850160051c820191505b81811015611ee057828155600101611ecd565b505050505050565b815167ffffffffffffffff811115611f0257611f02611b67565b611f1681611f108454611d45565b84611e98565b602080601f831160018114611f4b5760008415611f335750858301515b600019600386901b1c1916600185901b178555611ee0565b600085815260208120601f198616915b82811015611f7a57888601518255948401946001909101908401611f5b565b5085821015611f985787850151600019600388901b60f8161c191681555b5050505050600190811b01905550565b60208082526032908201527f4552433732313a207472616e7366657220746f206e6f6e20455243373231526560408201527131b2b4bb32b91034b6b83632b6b2b73a32b960711b606082015260800190565b6001600160a01b038581168252841660208201526040810183905260806060820181905260009061202d908301846119e4565b9695505050505050565b60006020828403121561204957600080fd5b815161152e8161198d56fea26469706673582212204b34779ac53c14efab30ce77e9f99b42eb4b24315732b4730a63a31d1ee90a5064736f6c63430008180033",
  "linkReferences": {},
  "deployedLinkReferences": {}
}